{
  "contractName": "Slots",
  "abi": [
    {
      "inputs": [
        {
          "internalType": "address",
          "name": "LLTH_",
          "type": "address"
        }
      ],
      "stateMutability": "nonpayable",
      "type": "constructor"
    },
    {
      "anonymous": false,
      "inputs": [
        {
          "indexed": true,
          "internalType": "address",
          "name": "previousOwner",
          "type": "address"
        },
        {
          "indexed": true,
          "internalType": "address",
          "name": "newOwner",
          "type": "address"
        }
      ],
      "name": "OwnershipTransferred",
      "type": "event"
    },
    {
      "anonymous": false,
      "inputs": [
        {
          "indexed": false,
          "internalType": "bytes32",
          "name": "requestId",
          "type": "bytes32"
        },
        {
          "indexed": false,
          "internalType": "uint256",
          "name": "amount",
          "type": "uint256"
        }
      ],
      "name": "PrizeOfPlayer",
      "type": "event"
    },
    {
      "anonymous": false,
      "inputs": [
        {
          "indexed": false,
          "internalType": "bytes32",
          "name": "requestId",
          "type": "bytes32"
        },
        {
          "indexed": false,
          "internalType": "uint256[]",
          "name": "randomNumbers",
          "type": "uint256[]"
        }
      ],
      "name": "RandomsAreArrived",
      "type": "event"
    },
    {
      "anonymous": false,
      "inputs": [
        {
          "indexed": false,
          "internalType": "address",
          "name": "player",
          "type": "address"
        },
        {
          "indexed": false,
          "internalType": "bytes32",
          "name": "requestId",
          "type": "bytes32"
        }
      ],
      "name": "RequestIdIsCreated",
      "type": "event"
    },
    {
      "inputs": [],
      "name": "LINKToken",
      "outputs": [
        {
          "internalType": "address",
          "name": "",
          "type": "address"
        }
      ],
      "stateMutability": "view",
      "type": "function",
      "constant": true
    },
    {
      "inputs": [],
      "name": "VRFCoordinator",
      "outputs": [
        {
          "internalType": "address",
          "name": "",
          "type": "address"
        }
      ],
      "stateMutability": "view",
      "type": "function",
      "constant": true
    },
    {
      "inputs": [
        {
          "internalType": "address",
          "name": "",
          "type": "address"
        }
      ],
      "name": "addressToRequestId",
      "outputs": [
        {
          "internalType": "bytes32",
          "name": "",
          "type": "bytes32"
        }
      ],
      "stateMutability": "view",
      "type": "function",
      "constant": true
    },
    {
      "inputs": [],
      "name": "betAmount",
      "outputs": [
        {
          "internalType": "uint256",
          "name": "",
          "type": "uint256"
        }
      ],
      "stateMutability": "view",
      "type": "function",
      "constant": true
    },
    {
      "inputs": [
        {
          "internalType": "address",
          "name": "",
          "type": "address"
        }
      ],
      "name": "bets",
      "outputs": [
        {
          "internalType": "uint256",
          "name": "",
          "type": "uint256"
        }
      ],
      "stateMutability": "view",
      "type": "function",
      "constant": true
    },
    {
      "inputs": [],
      "name": "fee",
      "outputs": [
        {
          "internalType": "uint256",
          "name": "",
          "type": "uint256"
        }
      ],
      "stateMutability": "view",
      "type": "function",
      "constant": true
    },
    {
      "inputs": [],
      "name": "keyHash",
      "outputs": [
        {
          "internalType": "bytes32",
          "name": "",
          "type": "bytes32"
        }
      ],
      "stateMutability": "view",
      "type": "function",
      "constant": true
    },
    {
      "inputs": [],
      "name": "maxSymbolValue",
      "outputs": [
        {
          "internalType": "uint256",
          "name": "",
          "type": "uint256"
        }
      ],
      "stateMutability": "view",
      "type": "function",
      "constant": true
    },
    {
      "inputs": [],
      "name": "minSymbolValue",
      "outputs": [
        {
          "internalType": "uint256",
          "name": "",
          "type": "uint256"
        }
      ],
      "stateMutability": "view",
      "type": "function",
      "constant": true
    },
    {
      "inputs": [],
      "name": "multiplier",
      "outputs": [
        {
          "internalType": "uint256",
          "name": "first",
          "type": "uint256"
        },
        {
          "internalType": "uint256",
          "name": "second",
          "type": "uint256"
        },
        {
          "internalType": "uint256",
          "name": "third",
          "type": "uint256"
        },
        {
          "internalType": "uint256",
          "name": "fourth",
          "type": "uint256"
        }
      ],
      "stateMutability": "view",
      "type": "function",
      "constant": true
    },
    {
      "inputs": [],
      "name": "owner",
      "outputs": [
        {
          "internalType": "address",
          "name": "",
          "type": "address"
        }
      ],
      "stateMutability": "view",
      "type": "function",
      "constant": true
    },
    {
      "inputs": [
        {
          "internalType": "bytes32",
          "name": "",
          "type": "bytes32"
        }
      ],
      "name": "randomNumberMap",
      "outputs": [
        {
          "internalType": "uint256",
          "name": "",
          "type": "uint256"
        }
      ],
      "stateMutability": "view",
      "type": "function",
      "constant": true
    },
    {
      "inputs": [
        {
          "internalType": "bytes32",
          "name": "requestId",
          "type": "bytes32"
        },
        {
          "internalType": "uint256",
          "name": "randomness",
          "type": "uint256"
        }
      ],
      "name": "rawFulfillRandomness",
      "outputs": [],
      "stateMutability": "nonpayable",
      "type": "function"
    },
    {
      "inputs": [],
      "name": "renounceOwnership",
      "outputs": [],
      "stateMutability": "nonpayable",
      "type": "function"
    },
    {
      "inputs": [
        {
          "internalType": "bytes32",
          "name": "",
          "type": "bytes32"
        }
      ],
      "name": "requestIdToAddress",
      "outputs": [
        {
          "internalType": "address",
          "name": "",
          "type": "address"
        }
      ],
      "stateMutability": "view",
      "type": "function",
      "constant": true
    },
    {
      "inputs": [
        {
          "internalType": "bytes32",
          "name": "",
          "type": "bytes32"
        },
        {
          "internalType": "uint256",
          "name": "",
          "type": "uint256"
        }
      ],
      "name": "requestIdToRandomNumbers",
      "outputs": [
        {
          "internalType": "uint256",
          "name": "",
          "type": "uint256"
        }
      ],
      "stateMutability": "view",
      "type": "function",
      "constant": true
    },
    {
      "inputs": [
        {
          "internalType": "bytes32",
          "name": "",
          "type": "bytes32"
        }
      ],
      "name": "results",
      "outputs": [
        {
          "internalType": "uint256",
          "name": "left",
          "type": "uint256"
        },
        {
          "internalType": "uint256",
          "name": "center",
          "type": "uint256"
        },
        {
          "internalType": "uint256",
          "name": "right",
          "type": "uint256"
        }
      ],
      "stateMutability": "view",
      "type": "function",
      "constant": true
    },
    {
      "inputs": [
        {
          "internalType": "address",
          "name": "newOwner",
          "type": "address"
        }
      ],
      "name": "transferOwnership",
      "outputs": [],
      "stateMutability": "nonpayable",
      "type": "function"
    },
    {
      "inputs": [],
      "name": "getBetAmount",
      "outputs": [
        {
          "internalType": "uint256",
          "name": "",
          "type": "uint256"
        }
      ],
      "stateMutability": "view",
      "type": "function",
      "constant": true
    },
    {
      "inputs": [
        {
          "internalType": "address",
          "name": "player",
          "type": "address"
        }
      ],
      "name": "resultOf",
      "outputs": [
        {
          "internalType": "uint256[]",
          "name": "",
          "type": "uint256[]"
        }
      ],
      "stateMutability": "view",
      "type": "function",
      "constant": true
    },
    {
      "inputs": [
        {
          "internalType": "address",
          "name": "player",
          "type": "address"
        }
      ],
      "name": "betOf",
      "outputs": [
        {
          "internalType": "uint256",
          "name": "",
          "type": "uint256"
        }
      ],
      "stateMutability": "view",
      "type": "function",
      "constant": true
    },
    {
      "inputs": [
        {
          "internalType": "address",
          "name": "LLTH_",
          "type": "address"
        }
      ],
      "name": "setLLTH",
      "outputs": [],
      "stateMutability": "nonpayable",
      "type": "function"
    },
    {
      "inputs": [
        {
          "internalType": "uint256",
          "name": "first_",
          "type": "uint256"
        },
        {
          "internalType": "uint256",
          "name": "second_",
          "type": "uint256"
        },
        {
          "internalType": "uint256",
          "name": "third_",
          "type": "uint256"
        },
        {
          "internalType": "uint256",
          "name": "fourth_",
          "type": "uint256"
        }
      ],
      "name": "setMultiplier",
      "outputs": [],
      "stateMutability": "nonpayable",
      "type": "function"
    },
    {
      "inputs": [
        {
          "internalType": "uint256",
          "name": "betAmount_",
          "type": "uint256"
        }
      ],
      "name": "setBetAmount",
      "outputs": [],
      "stateMutability": "nonpayable",
      "type": "function"
    },
    {
      "inputs": [
        {
          "internalType": "uint256",
          "name": "maxSymbolValue_",
          "type": "uint256"
        }
      ],
      "name": "setMaxSymbolValue",
      "outputs": [],
      "stateMutability": "nonpayable",
      "type": "function"
    },
    {
      "inputs": [
        {
          "internalType": "uint256",
          "name": "minSymbolValue_",
          "type": "uint256"
        }
      ],
      "name": "setMinSymbolValue",
      "outputs": [],
      "stateMutability": "nonpayable",
      "type": "function"
    },
    {
      "inputs": [
        {
          "internalType": "address",
          "name": "player",
          "type": "address"
        }
      ],
      "name": "getRandomNumber",
      "outputs": [],
      "stateMutability": "nonpayable",
      "type": "function"
    },
    {
      "inputs": [],
      "name": "placeBet",
      "outputs": [],
      "stateMutability": "nonpayable",
      "type": "function"
    },
    {
      "inputs": [
        {
          "internalType": "uint256",
          "name": "amount",
          "type": "uint256"
        }
      ],
      "name": "withdraw",
      "outputs": [],
      "stateMutability": "nonpayable",
      "type": "function"
    }
  ],
  "bytecode": "0x60c0604052678ac7230489e8000060075560066009556001600a5573a555fc018435bef5a13c6c6870a9d4c11dec329c600c60006101000a81548173ffffffffffffffffffffffffffffffffffffffff021916908373ffffffffffffffffffffffffffffffffffffffff1602179055507384b9b910527ad5c03a9ca831909e21e236ea7b06600d60006101000a81548173ffffffffffffffffffffffffffffffffffffffff021916908373ffffffffffffffffffffffffffffffffffffffff160217905550348015620000d157600080fd5b506040516200360a3803806200360a8339818101604052810190620000f7919062000383565b600c60009054906101000a900473ffffffffffffffffffffffffffffffffffffffff16600d60009054906101000a900473ffffffffffffffffffffffffffffffffffffffff166200015d62000151620002a060201b60201c565b620002a860201b60201c565b8173ffffffffffffffffffffffffffffffffffffffff1660a08173ffffffffffffffffffffffffffffffffffffffff1660601b815250508073ffffffffffffffffffffffffffffffffffffffff1660808173ffffffffffffffffffffffffffffffffffffffff1660601b81525050505080600260006101000a81548173ffffffffffffffffffffffffffffffffffffffff021916908373ffffffffffffffffffffffffffffffffffffffff160217905550604051806080016040528060148152602001600581526020016004815260200160018152506003600082015181600001556020820151816001015560408201518160020155606082015181600301559050507fcaf3c3727e033261d383b315559476f48034c13b18f8cafed4d871abe504918660001b600b8190555067016345785d8a00006008819055505062000408565b600033905090565b60008060009054906101000a900473ffffffffffffffffffffffffffffffffffffffff169050816000806101000a81548173ffffffffffffffffffffffffffffffffffffffff021916908373ffffffffffffffffffffffffffffffffffffffff1602179055508173ffffffffffffffffffffffffffffffffffffffff168173ffffffffffffffffffffffffffffffffffffffff167f8be0079c531659141344cd1fd0a4f28419497f9722a3daafe3b4186f6b6457e060405160405180910390a35050565b6000815190506200037d81620003ee565b92915050565b6000602082840312156200039c576200039b620003e9565b5b6000620003ac848285016200036c565b91505092915050565b6000620003c282620003c9565b9050919050565b600073ffffffffffffffffffffffffffffffffffffffff82169050919050565b600080fd5b620003f981620003b5565b81146200040557600080fd5b50565b60805160601c60a05160601c6131c86200044260003960008181610f9a0152611374015260008181610927015261133801526131c86000f3fe608060405234801561001057600080fd5b50600436106101cf5760003560e01c8063758a3a1c11610104578063aa528372116100a2578063f2fde38b11610071578063f2fde38b14610533578063f4e9775d1461054f578063f90f45601461056d578063fde41e2914610577576101cf565b8063aa528372146104a9578063bc64beee146104c7578063d24257c0146104f7578063ddca3f4314610515576101cf565b806389a78f1a116100de57806389a78f1a146104235780638da5cb5b1461045357806394985ddd14610471578063991cdf8b1461048d576101cf565b8063758a3a1c146103a75780637c777806146103d7578063811ebba9146103f3576101cf565b80634288d7591161017157806353a79d741161014b57806353a79d741461033357806361728f391461034f578063623c40471461036d578063715018a61461039d576101cf565b80634288d759146102a15780634c6b25b1146102d15780635017efb614610303576101cf565b8063217e4382116101ad578063217e43821461022d5780632e1a7d4d1461024b57806333b60863146102675780633b6dde1314610285576101cf565b806317c4caf4146101d4578063184f56aa146101f05780631b3ed7221461020c575b600080fd5b6101ee60048036038101906101e991906126f8565b610595565b005b61020a60048036038101906102059190612752565b61061b565b005b6102146106eb565b6040516102249493929190612cbd565b60405180910390f35b610235610709565b6040516102429190612c42565b60405180910390f35b610265600480360381019061026091906126f8565b61070f565b005b61026f6108fc565b60405161027c91906129bc565b60405180910390f35b61029f600480360381019061029a9190612631565b610922565b005b6102bb60048036038101906102b69190612631565b610af4565b6040516102c89190612c42565b60405180910390f35b6102eb60048036038101906102e6919061268b565b610b3d565b6040516102fa93929190612c86565b60405180910390f35b61031d60048036038101906103189190612631565b610b67565b60405161032a9190612ac0565b60405180910390f35b61034d600480360381019061034891906126f8565b610b7f565b005b610357610c05565b6040516103649190612ac0565b60405180910390f35b61038760048036038101906103829190612631565b610c0b565b6040516103949190612a9e565b60405180910390f35b6103a5610dc6565b005b6103c160048036038101906103bc919061268b565b610e4e565b6040516103ce9190612c42565b60405180910390f35b6103f160048036038101906103ec9190612631565b610e66565b005b61040d600480360381019061040891906126b8565b610f26565b60405161041a9190612c42565b60405180910390f35b61043d60048036038101906104389190612631565b610f57565b60405161044a9190612c42565b60405180910390f35b61045b610f6f565b60405161046891906129bc565b60405180910390f35b61048b600480360381019061048691906126b8565b610f98565b005b6104a760048036038101906104a291906126f8565b611034565b005b6104b16110ba565b6040516104be9190612c42565b60405180910390f35b6104e160048036038101906104dc919061268b565b6110c0565b6040516104ee91906129bc565b60405180910390f35b6104ff6110f3565b60405161050c9190612c42565b60405180910390f35b61051d6110f9565b60405161052a9190612c42565b60405180910390f35b61054d60048036038101906105489190612631565b6110ff565b005b6105576111f7565b60405161056491906129bc565b60405180910390f35b61057561121d565b005b61057f611322565b60405161058c9190612c42565b60405180910390f35b61059d61132c565b73ffffffffffffffffffffffffffffffffffffffff166105bb610f6f565b73ffffffffffffffffffffffffffffffffffffffff1614610611576040517f08c379a000000000000000000000000000000000000000000000000000000000815260040161060890612be2565b60405180910390fd5b80600a8190555050565b61062361132c565b73ffffffffffffffffffffffffffffffffffffffff16610641610f6f565b73ffffffffffffffffffffffffffffffffffffffff1614610697576040517f08c379a000000000000000000000000000000000000000000000000000000000815260040161068e90612be2565b60405180910390fd5b60405180608001604052808581526020018481526020018381526020018281525060036000820151816000015560208201518160010155604082015181600201556060820151816003015590505050505050565b60038060000154908060010154908060020154908060030154905084565b60095481565b61071761132c565b73ffffffffffffffffffffffffffffffffffffffff16610735610f6f565b73ffffffffffffffffffffffffffffffffffffffff161461078b576040517f08c379a000000000000000000000000000000000000000000000000000000000815260040161078290612be2565b60405180910390fd5b80600260009054906101000a900473ffffffffffffffffffffffffffffffffffffffff1673ffffffffffffffffffffffffffffffffffffffff166370a08231306040518263ffffffff1660e01b81526004016107e791906129bc565b60206040518083038186803b1580156107ff57600080fd5b505afa158015610813573d6000803e3d6000fd5b505050506040513d601f19601f820116820180604052508101906108379190612725565b101561084257600080fd5b600260009054906101000a900473ffffffffffffffffffffffffffffffffffffffff1673ffffffffffffffffffffffffffffffffffffffff1663a9059cbb610888610f6f565b836040518363ffffffff1660e01b81526004016108a6929190612a37565b602060405180830381600087803b1580156108c057600080fd5b505af11580156108d4573d6000803e3d6000fd5b505050506040513d601f19601f820116820180604052508101906108f8919061265e565b5050565b600c60009054906101000a900473ffffffffffffffffffffffffffffffffffffffff1681565b6008547f000000000000000000000000000000000000000000000000000000000000000073ffffffffffffffffffffffffffffffffffffffff166370a08231306040518263ffffffff1660e01b815260040161097e91906129bc565b60206040518083038186803b15801561099657600080fd5b505afa1580156109aa573d6000803e3d6000fd5b505050506040513d601f19601f820116820180604052508101906109ce9190612725565b1015610a0f576040517f08c379a0000000000000000000000000000000000000000000000000000000008152600401610a0690612c22565b60405180910390fd5b6000610a1f600b54600854611334565b905080601060008473ffffffffffffffffffffffffffffffffffffffff1673ffffffffffffffffffffffffffffffffffffffff16815260200190815260200160002081905550816011600083815260200190815260200160002060006101000a81548173ffffffffffffffffffffffffffffffffffffffff021916908373ffffffffffffffffffffffffffffffffffffffff1602179055507faede8a84bd70912adc412a1c86f3aa87a32e75e15b66e8d2c6139982e12777768282604051610ae8929190612a0e565b60405180910390a15050565b6000600f60008373ffffffffffffffffffffffffffffffffffffffff1673ffffffffffffffffffffffffffffffffffffffff168152602001908152602001600020549050919050565b600e6020528060005260406000206000915090508060000154908060010154908060020154905083565b60106020528060005260406000206000915090505481565b610b8761132c565b73ffffffffffffffffffffffffffffffffffffffff16610ba5610f6f565b73ffffffffffffffffffffffffffffffffffffffff1614610bfb576040517f08c379a0000000000000000000000000000000000000000000000000000000008152600401610bf290612be2565b60405180910390fd5b8060078190555050565b600b5481565b60606000600367ffffffffffffffff811115610c2a57610c29612ffe565b5b604051908082528060200260200182016040528015610c585781602001602082028036833780820191505090505b509050600e6000601060008673ffffffffffffffffffffffffffffffffffffffff1673ffffffffffffffffffffffffffffffffffffffff1681526020019081526020016000205481526020019081526020016000206000015481600081518110610cc557610cc4612fcf565b5b602002602001018181525050600e6000601060008673ffffffffffffffffffffffffffffffffffffffff1673ffffffffffffffffffffffffffffffffffffffff1681526020019081526020016000205481526020019081526020016000206001015481600181518110610d3b57610d3a612fcf565b5b602002602001018181525050600e6000601060008673ffffffffffffffffffffffffffffffffffffffff1673ffffffffffffffffffffffffffffffffffffffff1681526020019081526020016000205481526020019081526020016000206002015481600281518110610db157610db0612fcf565b5b60200260200101818152505080915050919050565b610dce61132c565b73ffffffffffffffffffffffffffffffffffffffff16610dec610f6f565b73ffffffffffffffffffffffffffffffffffffffff1614610e42576040517f08c379a0000000000000000000000000000000000000000000000000000000008152600401610e3990612be2565b60405180910390fd5b610e4c6000611495565b565b60136020528060005260406000206000915090505481565b610e6e61132c565b73ffffffffffffffffffffffffffffffffffffffff16610e8c610f6f565b73ffffffffffffffffffffffffffffffffffffffff1614610ee2576040517f08c379a0000000000000000000000000000000000000000000000000000000008152600401610ed990612be2565b60405180910390fd5b80600260006101000a81548173ffffffffffffffffffffffffffffffffffffffff021916908373ffffffffffffffffffffffffffffffffffffffff16021790555050565b60126020528160005260406000208181548110610f4257600080fd5b90600052602060002001600091509150505481565b600f6020528060005260406000206000915090505481565b60008060009054906101000a900473ffffffffffffffffffffffffffffffffffffffff16905090565b7f000000000000000000000000000000000000000000000000000000000000000073ffffffffffffffffffffffffffffffffffffffff163373ffffffffffffffffffffffffffffffffffffffff1614611026576040517f08c379a000000000000000000000000000000000000000000000000000000000815260040161101d90612c02565b60405180910390fd5b6110308282611559565b5050565b61103c61132c565b73ffffffffffffffffffffffffffffffffffffffff1661105a610f6f565b73ffffffffffffffffffffffffffffffffffffffff16146110b0576040517f08c379a00000000000000000000000000000000000000000000000000000000081526004016110a790612be2565b60405180910390fd5b8060098190555050565b600a5481565b60116020528060005260406000206000915054906101000a900473ffffffffffffffffffffffffffffffffffffffff1681565b60075481565b60085481565b61110761132c565b73ffffffffffffffffffffffffffffffffffffffff16611125610f6f565b73ffffffffffffffffffffffffffffffffffffffff161461117b576040517f08c379a000000000000000000000000000000000000000000000000000000000815260040161117290612be2565b60405180910390fd5b600073ffffffffffffffffffffffffffffffffffffffff168173ffffffffffffffffffffffffffffffffffffffff1614156111eb576040517f08c379a00000000000000000000000000000000000000000000000000000000081526004016111e290612ba2565b60405180910390fd5b6111f481611495565b50565b600d60009054906101000a900473ffffffffffffffffffffffffffffffffffffffff1681565b600260009054906101000a900473ffffffffffffffffffffffffffffffffffffffff1673ffffffffffffffffffffffffffffffffffffffff166323b872dd33306007546040518463ffffffff1660e01b815260040161127e939291906129d7565b602060405180830381600087803b15801561129857600080fd5b505af11580156112ac573d6000803e3d6000fd5b505050506040513d601f19601f820116820180604052508101906112d0919061265e565b50600754600f60003373ffffffffffffffffffffffffffffffffffffffff1673ffffffffffffffffffffffffffffffffffffffff1681526020019081526020016000208190555061132033610922565b565b6000600754905090565b600033905090565b60007f000000000000000000000000000000000000000000000000000000000000000073ffffffffffffffffffffffffffffffffffffffff16634000aea07f0000000000000000000000000000000000000000000000000000000000000000848660006040516020016113a8929190612b34565b6040516020818303038152906040526040518463ffffffff1660e01b81526004016113d593929190612a60565b602060405180830381600087803b1580156113ef57600080fd5b505af1158015611403573d6000803e3d6000fd5b505050506040513d601f19601f82011682018060405250810190611427919061265e565b50600061144a8460003060016000898152602001908152602001600020546117c6565b905060018060008681526020019081526020016000205461146b9190612d68565b600160008681526020019081526020016000208190555061148c8482611802565b91505092915050565b60008060009054906101000a900473ffffffffffffffffffffffffffffffffffffffff169050816000806101000a81548173ffffffffffffffffffffffffffffffffffffffff021916908373ffffffffffffffffffffffffffffffffffffffff1602179055508173ffffffffffffffffffffffffffffffffffffffff168173ffffffffffffffffffffffffffffffffffffffff167f8be0079c531659141344cd1fd0a4f28419497f9722a3daafe3b4186f6b6457e060405160405180910390a35050565b6000600367ffffffffffffffff81111561157657611575612ffe565b5b6040519080825280602002602001820160405280156115a45781602001602082028036833780820191505090505b5090506000600a54600a546115c5600160095461183590919063ffffffff16565b6115cf9190612e18565b846115da9190612f40565b6115e49190612d68565b905080826000815181106115fb576115fa612fcf565b5b6020026020010181815250506000600190505b82518110156116af57600a54600a54611633600160095461183590919063ffffffff16565b61163d9190612e18565b8383604051602001611650929190612c5d565b6040516020818303038152906040528051906020012060001c6116739190612f40565b61167d9190612d68565b8382815181106116905761168f612fcf565b5b60200260200101818152505080806116a790612ee3565b91505061160e565b50816012600086815260200190815260200160002090805190602001906116d792919061255e565b5060006040518060600160405280846000815181106116f9576116f8612fcf565b5b602002602001015181526020018460018151811061171a57611719612fcf565b5b602002602001015181526020018460028151811061173b5761173a612fcf565b5b6020026020010151815250905080600e60008781526020019081526020016000206000820151816000015560208201518160010155604082015181600201559050506117868561184b565b7f663048736e211b8fe5fd57d91e01e67b348416962b7ecb7c8520fff361ca0f7885846040516117b7929190612adb565b60405180910390a15050505050565b6000848484846040516020016117df9493929190612b5d565b6040516020818303038152906040528051906020012060001c9050949350505050565b60008282604051602001611817929190612990565b60405160208183030381529060405280519060200120905092915050565b600081836118439190612d68565b905092915050565b600073ffffffffffffffffffffffffffffffffffffffff166011600083815260200190815260200160002060009054906101000a900473ffffffffffffffffffffffffffffffffffffffff1673ffffffffffffffffffffffffffffffffffffffff1614156118ee576040517f08c379a00000000000000000000000000000000000000000000000000000000081526004016118e590612bc2565b60405180910390fd5b6006600e60008381526020019081526020016000206000015414801561192a57506006600e600083815260200190815260200160002060010154145b801561194c57506006600e600083815260200190815260200160002060020154145b15611b8457600260009054906101000a900473ffffffffffffffffffffffffffffffffffffffff1673ffffffffffffffffffffffffffffffffffffffff1663a9059cbb6011600084815260200190815260200160002060009054906101000a900473ffffffffffffffffffffffffffffffffffffffff16611a4d600360000154600f60006011600089815260200190815260200160002060009054906101000a900473ffffffffffffffffffffffffffffffffffffffff1673ffffffffffffffffffffffffffffffffffffffff1673ffffffffffffffffffffffffffffffffffffffff1681526020019081526020016000205461254890919063ffffffff16565b6040518363ffffffff1660e01b8152600401611a6a929190612a37565b602060405180830381600087803b158015611a8457600080fd5b505af1158015611a98573d6000803e3d6000fd5b505050506040513d601f19601f82011682018060405250810190611abc919061265e565b507f879bebf9f4672d4fcaa84b2c997284604553d52eebe0ad07b20b51aac402b09a81611b69600360000154600f60006011600088815260200190815260200160002060009054906101000a900473ffffffffffffffffffffffffffffffffffffffff1673ffffffffffffffffffffffffffffffffffffffff1673ffffffffffffffffffffffffffffffffffffffff1681526020019081526020016000205461254890919063ffffffff16565b604051611b77929190612b34565b60405180910390a161250b565b600e600082815260200190815260200160002060010154600e600083815260200190815260200160002060000154148015611bea5750600e600082815260200190815260200160002060020154600e600083815260200190815260200160002060000154145b8015611c0d57506006600e60008381526020019081526020016000206000015414155b15611e4557600260009054906101000a900473ffffffffffffffffffffffffffffffffffffffff1673ffffffffffffffffffffffffffffffffffffffff1663a9059cbb6011600084815260200190815260200160002060009054906101000a900473ffffffffffffffffffffffffffffffffffffffff16611d0e600360010154600f60006011600089815260200190815260200160002060009054906101000a900473ffffffffffffffffffffffffffffffffffffffff1673ffffffffffffffffffffffffffffffffffffffff1673ffffffffffffffffffffffffffffffffffffffff1681526020019081526020016000205461254890919063ffffffff16565b6040518363ffffffff1660e01b8152600401611d2b929190612a37565b602060405180830381600087803b158015611d4557600080fd5b505af1158015611d59573d6000803e3d6000fd5b505050506040513d601f19601f82011682018060405250810190611d7d919061265e565b507f879bebf9f4672d4fcaa84b2c997284604553d52eebe0ad07b20b51aac402b09a81611e2a600360010154600f60006011600088815260200190815260200160002060009054906101000a900473ffffffffffffffffffffffffffffffffffffffff1673ffffffffffffffffffffffffffffffffffffffff1673ffffffffffffffffffffffffffffffffffffffff1681526020019081526020016000205461254890919063ffffffff16565b604051611e38929190612b34565b60405180910390a161250a565b6006600e600083815260200190815260200160002060000154148015611e8157506006600e600083815260200190815260200160002060010154145b8015611ea457506006600e60008381526020019081526020016000206002015414155b80611f0a57506006600e600083815260200190815260200160002060000154148015611ee757506006600e60008381526020019081526020016000206001015414155b8015611f0957506006600e600083815260200190815260200160002060020154145b5b80611f7057506006600e60008381526020019081526020016000206000015414158015611f4d57506006600e600083815260200190815260200160002060010154145b8015611f6f57506006600e600083815260200190815260200160002060020154145b5b156121a857600260009054906101000a900473ffffffffffffffffffffffffffffffffffffffff1673ffffffffffffffffffffffffffffffffffffffff1663a9059cbb6011600084815260200190815260200160002060009054906101000a900473ffffffffffffffffffffffffffffffffffffffff16612071600360020154600f60006011600089815260200190815260200160002060009054906101000a900473ffffffffffffffffffffffffffffffffffffffff1673ffffffffffffffffffffffffffffffffffffffff1673ffffffffffffffffffffffffffffffffffffffff1681526020019081526020016000205461254890919063ffffffff16565b6040518363ffffffff1660e01b815260040161208e929190612a37565b602060405180830381600087803b1580156120a857600080fd5b505af11580156120bc573d6000803e3d6000fd5b505050506040513d601f19601f820116820180604052508101906120e0919061265e565b507f879bebf9f4672d4fcaa84b2c997284604553d52eebe0ad07b20b51aac402b09a8161218d600360020154600f60006011600088815260200190815260200160002060009054906101000a900473ffffffffffffffffffffffffffffffffffffffff1673ffffffffffffffffffffffffffffffffffffffff1673ffffffffffffffffffffffffffffffffffffffff1681526020019081526020016000205461254890919063ffffffff16565b60405161219b929190612b34565b60405180910390a1612509565b6006600e6000838152602001908152602001600020600001541480156121e557506006600e60008381526020019081526020016000206001015414155b801561220857506006600e60008381526020019081526020016000206002015414155b8061226f57506006600e6000838152602001908152602001600020600001541415801561224b57506006600e600083815260200190815260200160002060010154145b801561226e57506006600e60008381526020019081526020016000206002015414155b5b806122d657506006600e600083815260200190815260200160002060000154141580156122b357506006600e60008381526020019081526020016000206001015414155b80156122d557506006600e600083815260200190815260200160002060020154145b5b1561250857600260009054906101000a900473ffffffffffffffffffffffffffffffffffffffff1673ffffffffffffffffffffffffffffffffffffffff1663a9059cbb6011600084815260200190815260200160002060009054906101000a900473ffffffffffffffffffffffffffffffffffffffff166123d66003800154600f60006011600089815260200190815260200160002060009054906101000a900473ffffffffffffffffffffffffffffffffffffffff1673ffffffffffffffffffffffffffffffffffffffff1673ffffffffffffffffffffffffffffffffffffffff1681526020019081526020016000205461254890919063ffffffff16565b6040518363ffffffff1660e01b81526004016123f3929190612a37565b602060405180830381600087803b15801561240d57600080fd5b505af1158015612421573d6000803e3d6000fd5b505050506040513d601f19601f82011682018060405250810190612445919061265e565b507f879bebf9f4672d4fcaa84b2c997284604553d52eebe0ad07b20b51aac402b09a816124f16003800154600f60006011600088815260200190815260200160002060009054906101000a900473ffffffffffffffffffffffffffffffffffffffff1673ffffffffffffffffffffffffffffffffffffffff1673ffffffffffffffffffffffffffffffffffffffff1681526020019081526020016000205461254890919063ffffffff16565b6040516124ff929190612b34565b60405180910390a15b5b5b5b7f879bebf9f4672d4fcaa84b2c997284604553d52eebe0ad07b20b51aac402b09a81600060405161253d929190612b0b565b60405180910390a150565b600081836125569190612dbe565b905092915050565b82805482825590600052602060002090810192821561259a579160200282015b8281111561259957825182559160200191906001019061257e565b5b5090506125a791906125ab565b5090565b5b808211156125c45760008160009055506001016125ac565b5090565b6000813590506125d781613136565b92915050565b6000815190506125ec8161314d565b92915050565b60008135905061260181613164565b92915050565b6000813590506126168161317b565b92915050565b60008151905061262b8161317b565b92915050565b6000602082840312156126475761264661302d565b5b6000612655848285016125c8565b91505092915050565b6000602082840312156126745761267361302d565b5b6000612682848285016125dd565b91505092915050565b6000602082840312156126a1576126a061302d565b5b60006126af848285016125f2565b91505092915050565b600080604083850312156126cf576126ce61302d565b5b60006126dd858286016125f2565b92505060206126ee85828601612607565b9150509250929050565b60006020828403121561270e5761270d61302d565b5b600061271c84828501612607565b91505092915050565b60006020828403121561273b5761273a61302d565b5b60006127498482850161261c565b91505092915050565b6000806000806080858703121561276c5761276b61302d565b5b600061277a87828801612607565b945050602061278b87828801612607565b935050604061279c87828801612607565b92505060606127ad87828801612607565b91505092959194509250565b60006127c5838361295b565b60208301905092915050565b6127da81612e4c565b82525050565b60006127eb82612d12565b6127f58185612d35565b935061280083612d02565b8060005b8381101561283157815161281888826127b9565b975061282383612d28565b925050600181019050612804565b5085935050505092915050565b61284781612e6a565b82525050565b61285e61285982612e6a565b612f2c565b82525050565b600061286f82612d1d565b6128798185612d46565b9350612889818560208601612eb0565b61289281613032565b840191505092915050565b6128a681612e9e565b82525050565b60006128b9602683612d57565b91506128c482613043565b604082019050919050565b60006128dc601e83612d57565b91506128e782613092565b602082019050919050565b60006128ff602083612d57565b915061290a826130bb565b602082019050919050565b6000612922601f83612d57565b915061292d826130e4565b602082019050919050565b6000612945601083612d57565b91506129508261310d565b602082019050919050565b61296481612e94565b82525050565b61297381612e94565b82525050565b61298a61298582612e94565b612f36565b82525050565b600061299c828561284d565b6020820191506129ac8284612979565b6020820191508190509392505050565b60006020820190506129d160008301846127d1565b92915050565b60006060820190506129ec60008301866127d1565b6129f960208301856127d1565b612a06604083018461296a565b949350505050565b6000604082019050612a2360008301856127d1565b612a30602083018461283e565b9392505050565b6000604082019050612a4c60008301856127d1565b612a59602083018461296a565b9392505050565b6000606082019050612a7560008301866127d1565b612a82602083018561296a565b8181036040830152612a948184612864565b9050949350505050565b60006020820190508181036000830152612ab881846127e0565b905092915050565b6000602082019050612ad5600083018461283e565b92915050565b6000604082019050612af0600083018561283e565b8181036020830152612b0281846127e0565b90509392505050565b6000604082019050612b20600083018561283e565b612b2d602083018461289d565b9392505050565b6000604082019050612b49600083018561283e565b612b56602083018461296a565b9392505050565b6000608082019050612b72600083018761283e565b612b7f602083018661296a565b612b8c60408301856127d1565b612b99606083018461296a565b95945050505050565b60006020820190508181036000830152612bbb816128ac565b9050919050565b60006020820190508181036000830152612bdb816128cf565b9050919050565b60006020820190508181036000830152612bfb816128f2565b9050919050565b60006020820190508181036000830152612c1b81612915565b9050919050565b60006020820190508181036000830152612c3b81612938565b9050919050565b6000602082019050612c57600083018461296a565b92915050565b6000604082019050612c72600083018561296a565b612c7f602083018461296a565b9392505050565b6000606082019050612c9b600083018661296a565b612ca8602083018561296a565b612cb5604083018461296a565b949350505050565b6000608082019050612cd2600083018761296a565b612cdf602083018661296a565b612cec604083018561296a565b612cf9606083018461296a565b95945050505050565b6000819050602082019050919050565b600081519050919050565b600081519050919050565b6000602082019050919050565b600082825260208201905092915050565b600082825260208201905092915050565b600082825260208201905092915050565b6000612d7382612e94565b9150612d7e83612e94565b9250827fffffffffffffffffffffffffffffffffffffffffffffffffffffffffffffffff03821115612db357612db2612f71565b5b828201905092915050565b6000612dc982612e94565b9150612dd483612e94565b9250817fffffffffffffffffffffffffffffffffffffffffffffffffffffffffffffffff0483118215151615612e0d57612e0c612f71565b5b828202905092915050565b6000612e2382612e94565b9150612e2e83612e94565b925082821015612e4157612e40612f71565b5b828203905092915050565b6000612e5782612e74565b9050919050565b60008115159050919050565b6000819050919050565b600073ffffffffffffffffffffffffffffffffffffffff82169050919050565b6000819050919050565b6000612ea982612e94565b9050919050565b60005b83811015612ece578082015181840152602081019050612eb3565b83811115612edd576000848401525b50505050565b6000612eee82612e94565b91507fffffffffffffffffffffffffffffffffffffffffffffffffffffffffffffffff821415612f2157612f20612f71565b5b600182019050919050565b6000819050919050565b6000819050919050565b6000612f4b82612e94565b9150612f5683612e94565b925082612f6657612f65612fa0565b5b828206905092915050565b7f4e487b7100000000000000000000000000000000000000000000000000000000600052601160045260246000fd5b7f4e487b7100000000000000000000000000000000000000000000000000000000600052601260045260246000fd5b7f4e487b7100000000000000000000000000000000000000000000000000000000600052603260045260246000fd5b7f4e487b7100000000000000000000000000000000000000000000000000000000600052604160045260246000fd5b600080fd5b6000601f19601f8301169050919050565b7f4f776e61626c653a206e6577206f776e657220697320746865207a65726f206160008201527f6464726573730000000000000000000000000000000000000000000000000000602082015250565b7f506c617965722063616e6e6f74206265206e756c6c20616464726573732e0000600082015250565b7f4f776e61626c653a2063616c6c6572206973206e6f7420746865206f776e6572600082015250565b7f4f6e6c7920565246436f6f7264696e61746f722063616e2066756c66696c6c00600082015250565b7f4e6f7420656e6f756768204c494e4b2e00000000000000000000000000000000600082015250565b61313f81612e4c565b811461314a57600080fd5b50565b61315681612e5e565b811461316157600080fd5b50565b61316d81612e6a565b811461317857600080fd5b50565b61318481612e94565b811461318f57600080fd5b5056fea2646970667358221220485f285e64228343777c3cbb5388151c6aac0a34f5d7f4058c9026b672b1106664736f6c63430008070033",
  "immutableReferences": {
    "73": [
      {
        "length": 32,
        "start": 2343
      },
      {
        "length": 32,
        "start": 4920
      }
    ],
    "75": [
      {
        "length": 32,
        "start": 3994
      },
      {
        "length": 32,
        "start": 4980
      }
    ]
  },
  "source": "/**\n *   _____________   _______ _____ ___________ ________  ________ _   _ ______\n *  /  __ | ___ \\ \\ / | ___ |_   _|  _  |  _  |  ___|  \\/  |  _  | \\ | |___  /\n *  | /  \\| |_/ /\\ V /| |_/ / | | | | | | | | | |__ |      | | | |  \\| |  / /\n *  | |   |    /  \\ / |  __/  | | | | | | | | |  __|| |\\/| | | | |     | / /\n *  \\ \\__/| |\\ \\  | | | |     | | \\ \\_/ | |/ /| |___| |  | \\ \\_/ | |\\  |/ /___\n *   \\____\\_| \\_| \\_/ \\_|     \\_/  \\___/|___/ \\____/\\_|  |_/\\___/\\_| \\_\\_____/\n *\n *\n *  #CryptoDemonz, Slot Machine\n *\n *  This game has 3 circular, independently operated reels.\n *  A series of 6 different symbols (1, 2, 3, 4, 5, 6) is put on each reel.\n *  The player places a certain amount of bet and starts the round. During the game,\n *  reels are spinning & spinning then they stop at a random symbol.\n *  There are a series of rules on which results payout and how much.\n *  Different combinations offer different payouts.\n *\n */\n\n// SPDX-License-Identifier: MIT\npragma solidity ^0.8.7;\n\nimport \"@openzeppelin/contracts/token/ERC20/IERC20.sol\";\nimport \"@openzeppelin/contracts/token/ERC20/utils/SafeERC20.sol\";\nimport \"@openzeppelin/contracts/utils/Address.sol\";\nimport \"@openzeppelin/contracts/access/Ownable.sol\";\nimport \"@openzeppelin/contracts/utils/math/SafeMath.sol\";\nimport \"@chainlink/contracts/src/v0.8/VRFConsumerBase.sol\";\n\ncontract Slots is Ownable, VRFConsumerBase {\n    using SafeMath for uint256;\n    using Address for address;\n\n    // three symbols that appears as result or winning result\n    // symbols can be integers between 1 and 6\n    struct Combination {\n        uint256 left;\n        uint256 center;\n        uint256 right;\n    }\n\n    // each winning result has a multiplier for calculating the player's winning amount\n    struct Multiplier {\n        uint256 first; // multiplier for result: 6-6-6\n        uint256 second; // multiplier for these results: 5-5-5, 4-4-4, 3-3-3, 2-2-2, 1-1-1\n        uint256 third; // multiplier for these results: 6-6-x, 6-x-6, x-6-6\n        uint256 fourth; // multiplier for these results: 6-x-x, x-6-x, x-x-6\n    }\n\n    // instance of $LLTH token\n    IERC20 internal _LLTH;\n\n    // multipliers that are used for calculating the prize\n    Multiplier public multiplier;\n\n    // fixed amount of $LLTH tokens that a player can place as bet for a spin\n    uint256 public betAmount = 10 * 10**18;\n\n    // fee required to fulfill a VRF request\n    uint256 public fee;\n\n    // max value on a reel\n    uint256 public maxSymbolValue = 6;\n\n    // min value on a reel\n    uint256 public minSymbolValue = 1;\n\n    // public key against which randomness is generated\n    bytes32 public keyHash;\n\n    // the address of the smart contract which verifies if the numbers returned from Chainlink are actually random\n    address public VRFCoordinator = 0xa555fC018435bef5A13C6c6870a9d4C11DEC329C;\n\n    // LINK token's address\n    address public LINKToken = 0x84b9B910527Ad5C03A9Ca831909E21e236EA7b06;\n\n    // players' dedicated result by reqest ID that appears in the end of a spin\n    mapping(bytes32 => Combination) public results;\n\n    // players' bet amount in a spin\n    mapping(address => uint256) public bets;\n\n    // mapping of player's address to requestId\n    mapping(address => bytes32) public addressToRequestId;\n\n    // mapping of requestId to player's address\n    mapping(bytes32 => address) public requestIdToAddress;\n\n    // mapping of requestId to the returned random number\n    mapping(bytes32 => uint256[]) public requestIdToRandomNumbers;\n\n    // for testing\n    mapping(bytes32 => uint256) public randomNumberMap;\n\n    // sending random numbers for front-end\n    event RandomsAreArrived(bytes32 requestId, uint256[] randomNumbers);\n\n    // sending request ID for front-end\n    event RequestIdIsCreated(address player, bytes32 requestId);\n\n    // sending the calculated prize of player for front-end\n    event PrizeOfPlayer(bytes32 requestId, uint256 amount);\n\n    //-------------------------------------------------------------------------\n    // CONSTRUCTOR\n    //-------------------------------------------------------------------------\n\n    constructor(address LLTH_) VRFConsumerBase(VRFCoordinator, LINKToken) {\n        _LLTH = IERC20(LLTH_);\n        multiplier = Multiplier(20, 5, 4, 1);\n        keyHash = 0xcaf3c3727e033261d383b315559476f48034c13b18f8cafed4d871abe5049186;\n        fee = 0.1 * 10**18; // 0.1 LINK\n    }\n\n    //-------------------------------------------------------------------------\n    // VIEW FUNCTIONS\n    //-------------------------------------------------------------------------\n\n    function getBetAmount() external view returns (uint256) {\n        return betAmount;\n    }\n\n    function resultOf(address player) external view returns (uint256[] memory) {\n        uint256[] memory result = new uint256[](3);\n\n        result[0] = results[addressToRequestId[player]].left;\n        result[1] = results[addressToRequestId[player]].center;\n        result[2] = results[addressToRequestId[player]].right;\n\n        return result;\n    }\n\n    function betOf(address player) external view returns (uint256) {\n        return bets[player];\n    }\n\n    //-------------------------------------------------------------------------\n    // SET FUNCTIONS\n    //-------------------------------------------------------------------------\n\n    function setLLTH(address LLTH_) external onlyOwner {\n        _LLTH = IERC20(LLTH_);\n    }\n\n    function setMultiplier(\n        uint256 first_,\n        uint256 second_,\n        uint256 third_,\n        uint256 fourth_\n    ) external onlyOwner {\n        multiplier = Multiplier(first_, second_, third_, fourth_);\n    }\n\n    function setBetAmount(uint256 betAmount_) external onlyOwner {\n        betAmount = betAmount_;\n    }\n\n    function setMaxSymbolValue(uint256 maxSymbolValue_) external onlyOwner {\n        maxSymbolValue = maxSymbolValue_;\n    }\n\n    function setMinSymbolValue(uint256 minSymbolValue_) external onlyOwner {\n        minSymbolValue = minSymbolValue_;\n    }\n\n    //-------------------------------------------------------------------------\n    // RANDOM NUMBER FUNCTIONS\n    //-------------------------------------------------------------------------\n\n    function getRandomNumber(address player) public {\n        require(LINK.balanceOf(address(this)) >= fee, \"Not enough LINK.\");\n        bytes32 requestId = requestRandomness(keyHash, fee);\n        addressToRequestId[player] = requestId;\n        requestIdToAddress[requestId] = player;\n\n        emit RequestIdIsCreated(player, requestId);\n    }\n\n    function fulfillRandomness(bytes32 requestId, uint256 randomness)\n        internal\n        override\n    {\n        uint256[] memory randomNumbers = new uint256[](3);\n        uint256 randomNumber = (randomness %\n            (maxSymbolValue.add(1) - minSymbolValue)) + minSymbolValue; // random number between 1 and 6\n        randomNumbers[0] = randomNumber;\n\n        // getting 2 more random numbers out of 1 truly random\n        for (uint256 i = 1; i < randomNumbers.length; i++) {\n            randomNumbers[i] = uint256(\n                (uint256(keccak256(abi.encode(randomNumber, i))) %\n                    (maxSymbolValue.add(1) - minSymbolValue)) + minSymbolValue\n            );\n        }\n        requestIdToRandomNumbers[requestId] = randomNumbers;\n        Combination memory result = Combination(\n            randomNumbers[0],\n            randomNumbers[1],\n            randomNumbers[2]\n        );\n        results[requestId] = result;\n\n        calculatePrize(requestId);\n\n        emit RandomsAreArrived(requestId, randomNumbers);\n    }\n\n    //-------------------------------------------------------------------------\n    // INTERNAL FUNCTIONS\n    //-------------------------------------------------------------------------\n\n    function calculatePrize(bytes32 requestId) internal {\n        require(\n            requestIdToAddress[requestId] != address(0),\n            \"Player cannot be null address.\"\n        );\n\n        // 6-6-6\n        // --> Pays: 20x\n        if (\n            results[requestId].left == 6 &&\n            results[requestId].center == 6 &&\n            results[requestId].right == 6\n        ) {\n            _LLTH.transfer(\n                requestIdToAddress[requestId],\n                bets[requestIdToAddress[requestId]].mul(multiplier.first)\n            );\n\n            emit PrizeOfPlayer(\n                requestId,\n                bets[requestIdToAddress[requestId]].mul(multiplier.first)\n            );\n        }\n        // 5-5-5, 4-4-4, 3-3-3, 2-2-2, 1-1-1\n        // --> Pays: 5x\n        else if (\n            results[requestId].left == results[requestId].center &&\n            results[requestId].left == results[requestId].right &&\n            results[requestId].left != 6\n        ) {\n            _LLTH.transfer(\n                requestIdToAddress[requestId],\n                bets[requestIdToAddress[requestId]].mul(multiplier.second)\n            );\n\n            emit PrizeOfPlayer(\n                requestId,\n                bets[requestIdToAddress[requestId]].mul(multiplier.second)\n            );\n        }\n        // 6-6-x, 6-x-6, x-6-6\n        // --> Pays: 4x\n        else if (\n            (results[requestId].left == 6 &&\n                results[requestId].center == 6 &&\n                results[requestId].right != 6) ||\n            // ----------------------------\n            (results[requestId].left == 6 &&\n                results[requestId].center != 6 &&\n                results[requestId].right == 6) ||\n            // ----------------------------\n            (results[requestId].left != 6 &&\n                results[requestId].center == 6 &&\n                results[requestId].right == 6)\n        ) {\n            _LLTH.transfer(\n                requestIdToAddress[requestId],\n                bets[requestIdToAddress[requestId]].mul(multiplier.third)\n            );\n\n            emit PrizeOfPlayer(\n                requestId,\n                bets[requestIdToAddress[requestId]].mul(multiplier.third)\n            );\n        }\n        // 6-x-x, x-6-x, x-x-6\n        // --> Pays: 1x\n        else if (\n            (results[requestId].left == 6 &&\n                results[requestId].center != 6 &&\n                results[requestId].right != 6) ||\n            // ----------------------------\n            (results[requestId].left != 6 &&\n                results[requestId].center == 6 &&\n                results[requestId].right != 6) ||\n            // ----------------------------\n            (results[requestId].left != 6 &&\n                results[requestId].center != 6 &&\n                results[requestId].right == 6)\n        ) {\n            _LLTH.transfer(\n                requestIdToAddress[requestId],\n                bets[requestIdToAddress[requestId]].mul(multiplier.fourth)\n            );\n\n            emit PrizeOfPlayer(\n                requestId,\n                bets[requestIdToAddress[requestId]].mul(multiplier.fourth)\n            );\n        }\n\n        emit PrizeOfPlayer(requestId, 0);\n    }\n\n    //-------------------------------------------------------------------------\n    // EXTERNAL FUNCTIONS\n    //-------------------------------------------------------------------------\n\n    function placeBet() external {\n        _LLTH.transferFrom(msg.sender, address(this), betAmount);\n        bets[msg.sender] = betAmount;\n        getRandomNumber(msg.sender);\n    }\n\n    function withdraw(uint256 amount) external onlyOwner {\n        require(_LLTH.balanceOf(address(this)) >= amount);\n\n        _LLTH.transfer(owner(), amount);\n    }\n}\n",
  "sourcePath": "/home/levi/demonzSlots/contracts/Slots.sol",
  "compiler": {
    "name": "solc",
    "version": "0.8.7+commit.e28d00a7.Emscripten.clang"
  },
  "schemaVersion": "3.4.1",
  "updatedAt": "2021-10-07T14:47:32.299Z",
  "networkType": "ethereum",
  "devdoc": {
    "kind": "dev",
    "methods": {
      "owner()": {
        "details": "Returns the address of the current owner."
      },
      "renounceOwnership()": {
        "details": "Leaves the contract without owner. It will not be possible to call `onlyOwner` functions anymore. Can only be called by the current owner. NOTE: Renouncing ownership will leave the contract without an owner, thereby removing any functionality that is only available to the owner."
      },
      "transferOwnership(address)": {
        "details": "Transfers ownership of the contract to a new account (`newOwner`). Can only be called by the current owner."
      }
    },
    "version": 1
  },
  "userdoc": {
    "kind": "user",
    "methods": {},
    "version": 1
  }
}